S0100000556172745F4156522E7372656330
S11300000C9434000C9451000C9451000C94510045
S11300100C9451000C9451000C9451000C94510018
S11300200C9451000C9451000C9451000C94510008
S11300300C9451000C9451000C9451000C945100F8
S11300400C9451000C9451000C94DA000C9451005F
S11300500C9451000C9451000C9451000C945100D8
S11300600C9451000C94510011241FBECFEFD8E022
S1130070DEBFCDBF11E0A0E0B1E0E6E3F3E002C0F3
S113008005900D92AE39B107D9F721E0AEE9B1E0A0
S113009001C01D92A43DB207E1F70E940D010C942A
S11300A099010C94000087E690E09093C50080933A
S11300B0C40086E08093C20088E98093C1008FEF7A
S11300C084B97894089520913D0121114AC0109279
S11300D09F0110929E0120919E0130919F014091B9
S11300E0A0015091A10142175307DCF1FC01E20F7A
S11300F0F31FD901AE55BE4F2C91208320919E0150
S113010030919F014091A0015091A101241735071E
S1130110E9F410929F0110929E0120919E0130916A
S11301209F01421753075CF0F901EE55FE4F108210
S11301302F5F3F4F30939F0120939E01EECF21E02C
S113014020933D011092A1011092A00120919E01E3
S113015030919F012F5F3F4F30939F0120939E0169
S1130160BACF08959091C00095FFFCCF8093C6004C
S11301700895CF93C82F8A30B9F080913D01882328
S113018099F0E091A001F091A101EE55FE4FC083DA
S11301908C2F0E94B2008091A0019091A101019640
S11301A09093A1018093A001CA3011F410923D01F3
S11301B0CF9108951F920F920FB60F9211242F938F
S11301C03F934F935F936F937F938F939F93AF93DB
S11301D0BF93EF93FF938091C6000E94B900FF91F3
S11301E0EF91BF91AF919F918F917F916F915F91AB
S11301F04F913F912F910F900FBE0F901F90189524
S1130200CF93DF93EC018881882321F00E94B20010
S11302102196F9CFDF91CF910895CF93DF93CDB796
S1130220DEB72F970FB6F894DEBF0FBECDBF1A828C
S11302301982FE0133968DE0DF011D928A95E9F75C
S11302400E945300BFEF27EA81E6B150204080406E
S1130250E1F700C000008EE391E00E94000183E218
S11302600E94B2008FEF84B99FEFA3EDB0E39150E9
S1130270A040B040E1F700C00000CE0101960E940A
S1130280630063E371E0CE0101960E949001892B23
S113029041F48DE491E00E94000185B1826085B94A
S11302A0E3CF68E271E0CE0101960E949001892BB0
S11302B041F48BE591E00E94000185B18D7F85B901
S11302C0D3CF6EE171E0CE0101960E949001892B9B
S11302D041F48AE691E00E94000185B1846085B909
S11302E0C3CF63E171E0CE0101960E949001892B96
S11302F041F488E791E00E94000185B18B7F85B9C4
S1130300B3CF60E071E0CE0101960E949001892B89
S113031009F0AACF87E891E00E94000115B8A4CFA4
S1130320FB01DC018D91019080190110D9F3990B27
S10903300895F894FFCFCC
S1130336416C6C206170706C69616E636573204FEB
S113034646460046414E206973204F4646004641C4
S11303564E206973204F4E004C4544206973204F4C
S11303664646004C4544206973204F4E0001436FB6
S1130376646520537461727465640D0A000D0A4C39
S11303864544206973204F4E0D0A000D0A4C45441E
S1130396206973204F46460D0A000D0A46414E2039
S11303A66973204F4E0D0A000D0A46414E206973AB
S11303B6204F46460D0A000D0A416C6C2061707090
S11103C66C69616E636573204F46460D0A0034
S9030000FC
