S00B00004C43442E7372656346
S11300000C942A000C943F000C943F000C943F0085
S11300100C943F000C943F000C943F000C943F0060
S11300200C943F000C943F000C943F000C943F0050
S11300300C943F000C943F000C943F000C943F0040
S11300400C943F000C943F000C943F000C943F0030
S11300500C943F0011241FBECFE5D8E0DEBFCDBF16
S113006010E0A0E6B0E0E8E8F1E002C005900D92EF
S1130070A037B107D9F70E94B3000C94C2000C94C6
S1130080000088BB82B38B7F82BB8FE39FE1019723
S1130090F1F700C0000082B3886082BB8FE39FE168
S11300A00197F1F700C0000082B3877F82BB0895F7
S11300B088BB82B3846082BB8FE39FE10197F1F731
S11300C000C0000082B3886082BB8FE39FE1019788
S11300D0F1F700C0000082B3877F82BB0895CF93FD
S11300E0DF93EC0103C00E9458002196888181119E
S11300F0FACFDF91CF91089588E30E9441008FE108
S11301009EE40197F1F700C0000082E00E944100E4
S11301108FE19EE40197F1F700C0000081E00E94A6
S113012041008FE19EE40197F1F700C000008CE0EC
S11301300E9441008FE19EE40197F1F700C00000A6
S113014086E00E9441008FE19EE40197F1F700C030
S1130150000080E80E9441008FE19EE40197F1F7DE
S113016000C0000008958FEF87BB81B3846081BB1A
S113017081B3886081BB0E947C0080E690E00E948D
S10B01806F00FFCFF894FFCFDC
S113018857656C636F6D6520746F2041565200008B
S9030000FC
