:100000000C942A000C9434000C9434000C943400AA
:100010000C9434000C9434000C9434000C94340090
:100020000C9434000C9434000C9434000C94340080
:100030000C9434000C9434000C9434000C94340070
:100040000C9434000C9434000C9434000C94340060
:100050000C94340011241FBECFE5D8E0DEBFCDBF25
:100060000E9436000C944F000C9400008FEF8ABB66
:100070008AEA8BBB2FEF83EC99E0215080409040BF
:10008000E1F700C0000085E58BBB2FEF83EC99E022
:10009000215080409040E1F700C00000E9CFF89483
:0200A000FFCF90
:00000001FF
