:100000000C942A000C9434000C9434000C943400AA
:100010000C9434000C9434000C9434000C94340090
:100020000C9434000C9434000C9434000C94340080
:100030000C9434000C9434000C9434000C94340070
:100040000C9434000C9434000C9434000C94340060
:100050000C94340011241FBECFE5D8E0DEBFCDBF25
:100060000E9436000C945A000C94000087B3877FDE
:1000700087BB87B38F7D87BB81B3816081BB81B331
:10008000806281BB88B3886088BB88B3806288BB8C
:10009000B59903C082B3816082BBB39904C082B3B7
:1000A000806282BBF5CF82B38E7F82BB82B38F7DAD
:0800B00082BBEECFF894FFCFF4
:00000001FF
