S00E00005461736B20322E7372656331
S11300000C942A000C943F000C943F000C943F0085
S11300100C943F000C943F000C943F000C943F0060
S11300200C943F000C943F000C943F000C943F0050
S11300300C943F000C943F000C943F000C943F0040
S11300400C943F000C943F000C943F000C943F0030
S11300500C943F0011241FBECFE5D8E0DEBFCDBF16
S113006010E0A0E6B0E0E2E1F4E002C005900D92F9
S1130070A037B107D9F70E94AB010C9407020C9486
S1130080000088BB82B38B7F82BB82B3886082BB53
S11300908FE99FE00197F1F700C0000082B3877FEA
S11300A082BB089588BB82B3846082BB82B38860BC
S11300B082BB8FE99FE00197F1F700C0000082B393
S11300C0877F82BB089588E30E9441008FE19EE40C
S11300D00197F1F700C0000082E00E9441008FE127
S11300E09EE40197F1F700C0000081E00E94410006
S11300F08FE19EE40197F1F700C000008CE00E94BC
S113010041008FE19EE40197F1F700C0000086E012
S11301100E9441008FE19EE40197F1F700C00000C6
S113012080E80E9441008FE19EE40197F1F700C04E
S1130130000008959FEF980F923028F49FEF960FD8
S1130140903120F405C061E081E002C061E081E00B
S1130150813029F48FE7860F0E94410008958FEBC8
S1130160860F0E94410008950F931F93CF93DF934E
S11301708A01E901882311F0611105C061E081E081
S11301800E949A0002C00E949A00C530D105B1F4C1
S11301909801329522952F7023273F702327A7E4D7
S11301A0B3E00E94F8019695879596958795969564
S11301B08795805D0E94520081E001C080E0C430D8
S11301C0D10511F0813081F5980136952795369542
S11301D0279536952795A5ECB0E20E94F801AC016D
S11301E0529542954F7045275F7045279A01ADECB3
S11301F0BCEC0E94F80196958795969587959695FF
S113020087959C01220F331F880F991F880F991F10
S1130210880F991F820F931F9A01281B390BC9015C
S1130220805D0E94520081E0C330D10511F081301D
S113023051F598013695279536952795ABE7B4E1A6
S11302400E94F801AC01569547959A01ADECBCECBF
S11302500E94F8019695879596958795969587952A
S11302609C01220F331F880F991F880F991F880F35
S1130270991F820F931F9A01281B390BC901805DB6
S11302800E94520081E0C230D10511F0813041F565
S11302909801ADECBCEC0E94F801AC015695479571
S11302A056954795569547959A010E94F80196955B
S11302B0879596958795969587959C01220F331F70
S11302C0880F991F880F991F880F991F820F931FFA
S11302D09A01281B390BC901805D0E94520081E0FC
S11302E0C130D10511F08130E9F49801ADECBCECDA
S11302F00E94F8019695879596958795969587958A
S11303009C01220F331F880F991F880F991F880F94
S1130310991F820F931F9801281B390BC901805D17
S11303200E94520026971CF085E60E945200DF913D
S1130330CF911F910F910895CF93DF93EA010E940B
S11303409A0003C00E945200219688818111FACF3D
S1130350DF91CF9108958FEF87BB81B3846081BB18
S113036081B3886081BB81B38F7E81BB81B38F7D74
S113037081BB82B3806182BB82B3806282BB0E94F4
S1130380630040E650E061E081E00E949C0125E0CA
S113039030E040E050E061E082E00E94B400C0E060
S11303A0D0E0849911C0219625E030E0AE0161E0EF
S11303B082E00E94B4002FEF83EC99E0215080404A
S11303C09040E1F700C000008599EBCF219725E02C
S11303D030E0AE0161E082E00E94B4002FEF83ECD4
S11303E099E0215080409040E1F700C00000D9CF4F
S11303F0A29FB001B39FC001A39F700D811D112462
S1130400911DB29F700D811D1124911D0895F894C2
S1050410FFCF18
S113041255502D444F574E20436F756E74657200CC
S9030000FC
