S01F000053696E676C652062697420636F6E74726F6C6C2070696E2E7372656350
S11300000C942A000C9434000C9434000C943400A6
S11300100C9434000C9434000C9434000C9434008C
S11300200C9434000C9434000C9434000C9434007C
S11300300C9434000C9434000C9434000C9434006C
S11300400C9434000C9434000C9434000C9434005C
S11300500C94340011241FBECFE5D8E0DEBFCDBF21
S11300600E9436000C944E000C9400008FEF81BB6C
S11300708FEF82BB2FEF81EE94E0215080409040BF
S1130080E1F700C0000012BA2FEF81EE94E0215096
S113009080409040E1F700C00000EACFF894FFCF21
S9030000FC
